:01002000E9F6
:05002800220D20FCC9BF
:070030001A22130D20FAC98A
:08004000F5E521A5C0C3800015
:20008000C5D52AB6280BE53A6E67E7E12318F3E804D1C1E1F041E60220FAF1D921A3C034B5
:2000A000200223343E01E091C380FFF041E60220FA3EC0C384FFAF01240021A0C0CD7604C2
:2000C0003EC0E09267AF6F0EA0C32800F3E0FFAFFBE00FC9F092B7C8E0463E283D20FDC9AE
:0100F000C946
:02010000185590
:20010400CEED6666CC0D000B03730083000C000D0008111F8889000EDCCC6EE6DDDDD999DF
:16012400BBBB67636E0EECCCDDDC999FBBB9333E5469746C650079
:20014400000000000000000001000000FAA1C047FAA0C0F357583100E0D5CD9C04CDB60026
:20016400D17AEAA0C0FE112007AFCB3B17EAA1C0AFE042E043E041E04A3E07E04B11D40005
:200184002180FF0E0CF7CD80FF119C00CDED013EE4E047E0483E1BE0493EC0E0403E01E0C6
:2001A400FFAFE00F21A3C02277E0263CE090CD4208FBCD0002760018FCF040E680C8AFE077
:2001C400917600F091B728F9C921A5C02A4F2A47B1C87BB920F67AB820F2444D0B0B2A02A8
:1701E40003572A0203B220F6C921A5C02AB628032318F97A3273C93D
:0D08420001010021410811C4C0CD7F04C98F
:200476005F78B1C8730B545D1378B1C8CB38CB1930032A1213040C18062A12132A12130DA1
:1E04960020F70520F4C9F040E680C8F044FE9230FAF044FE9138FAF040E67FE040C990
:20C0000000000000000000000000000000000000000000000000010001000100010001001B
:20C02000000000000000FF00FF00FF00C000C000000000000000FF00FF00FF000000000086
:20C0400000000000000000000000FF0000000000000000000000FF000000000000000000E2
:20C06000000000000000FF00FF00FF0001000100000000000000C000C000C000C000C00001
:20C0800001000100010001000100010001000100C000C000C000C000C000C000C000C00098
:20C0A000000000000000000000003800280021000000000000000000000006000A00C80027
:20C0C000000000000000000000002000200074000000000000000000000000000000990013
:20C0E0000000000000000000000000000000E7000000000000000000000003000100010054
:20C1000000000000000000000000C00040000C00000000000000000000002300010061008E
:20C1200000000000000000000000000000002500110009002900390000000000000000005E
:20C140004C0048004800CC0000000000000000002500250022003200000000000000000099
:20C1600084009C00A4009D000000000000000000A500A70084008700000000000000000007
:20C180000100010001000300000000000000000082000E0012008E00000000000000000069
:20C1A000210021002100630000000000000000002400240024001D00000000000000000030
:20C1C00000000000100010000000000000000000780028002B003900210021007300000086
:20C1E00000000000CE004A004E0008000E0000000000000073004200730010007300000018
:20C200000300010081000100810081008100000000000000D200520052005200CE0000007F
:20C2200021002100730021002100210031000000000000009C001400140014009C00000041
:20C2400000000000E000A000A000A000A000000040004000E70045004500450067000000E1
:20C260000000000007000500040005000700000000000000390029002900290039000000B5
:20C2800004000400CE0044004400440046000000200000006300220022002200620000006B
:20C2A00000000000A400A400A400A4009C00000000000000E000A000E0008200E20000008E
:20C2C00000000000000000000000000000001C000000000000000000000000000000110031
:20C2E0000000000000000000000000000000620000000000000000000000000000001000CC
:20C3000000000000000000000000000000000400140021002D00250015001C000000000061
:20C3200000002F00250025002400EC0000000000000048004800480048003800000000001C
:20C340001B001F001500150011001100000000000000380029003900210038000000000064
:20C360002000A600620022002200E6000000000010003900100011001200190000000000D6
:20C3800004008E004400C4004400C6000000000000006300220022002200630000000000CD
:20C3A00000009C0094009400940094000000000000000000000000000A000A001E000A0055
:20C3C0000000000000000000730052005200520000000000000000009C009400940094009C
:20C3E0000000000000000000E700A500A500A5000000000000000000CA004A004A004A00BF
:20C40000000000000000000003000200020002000000000000000000100029002900290088
:20C42000000000000000000084004A0048004800000000000000000070005000500050003E
:20C440001E000A000A00000000000000000000005200520073000000000000000000000093
:20C46000940094009C0000000000000000000000A500A500E70000000000000000000000C7
:20C480004E004200C200000000000000000000000200220023000000000000000000000003
:20C4A00039002900290000000000000000000000C8004A004400000000000000000000009B
:20C4C00050005000700000000000000000000000000000000000000000000000000000004C
:20C4E00000000000000000000000000000000000000000000000000000000000000000003C
:20C5000000000000000000000000000000000000000000000000000000000000000000001B
:20C52000010203040404040404040505050505050505060708090A0B0C0D0E0F1011120E07
:20C5400000000000000008090809131415161718191A1B171C0000000000080908091D1E5A
:20C560001F202122232425262728292A2B00080908090000000000000000000000000000B8
:20C580000000080908090000002C00002D002E2F30300000000008090809000000313233AB
:20C5A0003435363738393A0000000809080900003B3C3D3E3D3F403D3E41424300000809D8
:20C5C000080900004445464746484946474A4B4C00000809010203040404040404040505B2
:20C5E000050505050505060700000000000000000000000000000000000000000000000010
:20C6000000000000000000000000000000000000000000000000000000000000000000001A
:20C620000000000000000000000000000000000000000000000000000000000101020202F2
:20C6400003030404040505060606070700000001010202020303040404050506060607075A
:20C66000000000010102020203030404040505060606070700000001010202020303040460
:20C68000040505060606070700000001010202020303040404050506060607070000000127
:20C6A00001020202030304040405050606060707000000010102020203030404040505060D
:20C6C0000606070700000001010202020303040404050506060607070000000101020202F4
:20C6E00003030404040505060606070700000001010202020303040404250506060607079A
:20C7000000000001010202020303040404050506060607070000000101020202230304049F
:20C72000040505060606070700000001010202022303040404050506060607074040404166
:20C7400041424242434344444445454646464747000000010102020203030404040505066C
:20C76000060607070000000101020202030304040405050606060707000000010102020253
:20C78000030304040405050606060707000000010102020203030404040505060606070719
:20C7A00000001F000000000000001F000000000000001F000000000000001F0000000000FD
:20C7C00000001F000000000000001F000000000000001F000000000000001F0000000000DD
:20C7E00000001F000000000000001F000000000000001F000000000000001F0000000000BD
:20C8000000001F000000000000001F000000000000001F000000000000001F00000000009C
:20C8200000001F000000000000001F000000000000001F000000000000001F00000000007C
:20C8400000001F000000000000001F000000000000001F000000000000001F00000000005C
:20C8600000001F000000000000001F000000000000001F000000000000001F00000000003C
:20C8800000001F000000000000001F000000000000001F000000000000001F00000000001C
:20C8A00000001F000000000000001F000000000000001F000000000000001F0000000000FC
:20C8C00000001F000000000000001F000000000000001F000000000000001F0000000000DC
:20C8E00000001F000000000000001F000000000000001F000000000000001F0000000000BC
:20C9000000001F000000000000001F000000000000001F000000000000001F00000000009B
:20C9200000001F000000000000001F000000000000001F000000000000001F00000000007B
:20C9400000001F000000000000001F000000000000001F000000000000001F00000000005B
:20C9600000001F000000000000001F000000000000001F000000000000001F00000000003B
:20C9800000001F000000000000001F000000000000001F000000000000001F00000000001B
:20C9A00000001F000000000000001F000000000000001F000000000000001F0000000000FB
:20C9C00000001F000000000000001F000000000000001F000000000000001F0000000000DB
:20C9E00000001F000000000000001F000000000000001F000000000000001F0000000000BB
:20CA000000001F000000000000001F000000000000001F000000000000001F00000000009A
:20CA200000001F000000000000001F000000000000001F000000000000001F00000000007A
:20CA400000001F000000000000001F000000000000001F000000000000001F00000000005A
:20CA600000001F000000000000001F000000000000001F000000000000001F00000000003A
:20CA800000001F000000000000001F000000000000001F000000000000001F00000000001A
:20CAA00000001F000000000000001F000000000000001F000000000000001F0000000000FA
:20CAC00000001F000000000000001F000000000000001F000000000000001F0000000000DA
:20CAE00000001F000000000000001F000000000000001F000000000000001F0000000000BA
:20CB000000001F000000000000001F000000000000001F000000000000001F000000000099
:20CB200000001F000000000000001F000000000000001F000000000000001F000000000079
:20CB400000001F000000000000001F000000000000001F000000000000001F000000000059
:20CB600000001F000000000000001F000000000000001F000000000000001F000000000039
:20CB800000001F000000000000001F000000000000001F000000000000001F000000000019
:20CBA00000001F000000000000001F000000000000001F000000000000001F0000000000F9
:20CBC00000001F000000000000001F000000000000001F000000000000001F0000000000D9
:20CBE00000001F000000000000001F000000000000001F000000000000001F0000000000B9
:20CC000000001F000000000000001F000000000000001F000000000000001F000000000098
:20CC200000001F00000000001F001F00000000001F001F00000000001F001F00000000001B
:20CC40001F001F00000000001F001F00000000001F001F000000000000001F0000000000FB
:20CC600000001F000000000000001F000000000000001F000000000000001F000000000038
:20CC800000001F000000000000001F000000000000001F000000000000001F000000000018
:20CCA00000001F000000000000001F000000000000001F000000000000001F0000000000F8
:20CCC00000001F000000000000001F000000000000001F000000000000001F0000000000D8
:20CCE00000001F000000000000001F000000000000001F000000000000001F0000000000B8
:20CD000000001F000000000000001F000000000000001F000000000000001F000000000097
:20CD200000001F000000000000001F000000000000001F000000000000001F000000000077
:20CD400000001F000000000000001F000000000000001F000000000000001F000000000057
:20CD600000001F000000000000001F000000000000001F000000000000001F000000000037
:20CD800000001F000000000000001F000000000000001F000000000000001F000000000017
:20CDA00000001F000000000000001F000000000000001F000000000000001F0000000000F7
:20CDC00000001F000000000000001F000000000000001F000000000000001F0000000000D7
:20CDE00000001F000000000000001F000000000000001F000000000000001F0000000000B7
:20CE000000001F000000000000001F000000000000001F000000000000001F000000000096
:20CE200000001F000000000000001F000000000000001F000000000000001F000000000076
:20CE400000001F000000000000001F000000000000001F000000000000001F000000000056
:20CE600000001F000000000000001F000000000000001F000000000000001F000000000036
:20CE800000001F000000000000001F000000000000001F000000000000001F000000000016
:20CEA00000001F000000000000001F000000000000001F000000000000001F0000000000F6
:20CEC00000001F000000000000001F000000000000001F000000000000001F0000000000D6
:20CEE00000001F000000000000001F000000000000001F000000000000001F0000000000B6
:20CF000000001F000000000000001F000000000000001F000000000000001F000000000095
:20CF200000001F000000000000001F000000000000001F000000000000001F000000000075
:20CF400000001F000000000000001F000000000000001F000000000000001F000000000055
:20CF600000001F000000000000001F000000000000001F000000000000001F000000000035
:20CF800000001F000000000000001F000000000000001F000000000000001F000000000015
:20CFA00000001F000000000000001F000000000000001F000000000000001F0000000000F5
:20CFC00000001F000000000000001F000000000000001F000000000000001F0000000000D5
:20CFE00000001F000000000000001F000000000000001F000000000000001F0000000000B5
:20D0000000001F000000000000001F000000000000001F000000000000001F000000000094
:20D0200000001F000000000000001F000000000000001F000000000000001F000000000074
:20D0400000001F000000000000001F000000000000001F000000000000001F000000000054
:20D0600000001F000000000000001F000000000000001F000000000000001F000000000034
:20D0800000001F000000000000001F000000000000001F000000000000001F000000000014
:20D0A00000001F000000000000001F000000000000001F000000000000001F0000000000F4
:20D0C00000001F000000000000001F000000000000001F000000000000001F0000000000D4
:20D0E00000001F000000000000001F000000000000001F000000000000001F0000000000B4
:20D1000000001F000000000000001F000000000000001F000000000000001F000000000093
:20D1200000001F000000000000001F000000000000001F000000000000001F000000000073
:20D1400000001F000000000000001F000000000000001F000000000000001F000000000053
:20D1600000001F000000000000001F000000000000001F000000000000001F000000000033
:20D1800000001F000000000000001F000000000000001F000000000000001F000000000013
:20D1A00000001F000000000000001F000000000000001F000000000000001F0000000000F3
:20D1C00000001F000000000000001F000000000000001F000000000000001F0000000000D3
:20D1E00000001F000000000000001F000000000000001F000000000000001F0000000000B3
:20D2000000001F000000000000001F000000000000001F000000000000001F000000000092
:20D2200000001F000000000000001F000000000000001F000000000000001F000000000072
:20D2400000001F000000000000001F000000000000001F000000000000001F000000000052
:20D2600000001F000000000000001F000000000000001F000000000000001F000000000032
:20D2800000001F000000000000001F000000000000001F000000000000001F000000000012
:20D2A00000001F000000000000001F000000000000001F000000000000001F0000000000F2
:20D2C00000001F000000000000001F000000000000001F000000000000001F0000000000D2
:20D2E00000001F000000000000001F000000000000001F000000000000001F0000000000B2
:20D3000000001F000000000000001F000000000000001F000000000000001F000000000091
:20D3200000001F000000000000001F000000000000001F000000000000001F000000000071
:20D3400000001F000000000000001F000000000000001F000000000000001F000000000051
:20D3600000001F000000000000001F000000000000001F000000000000001F000000000031
:20D3800000001F000000000000001F000000000000001F000000000000001F000000000011
:20D3A00000001F000000000000001F000000000000001F000000000000001F0000000000F1
:20D3C00000001F000000000000001F000000000000001F000000000000001F0000000000D1
:20D3E00000001F000000000000001F000000000000001F000000000000001F0000000000B1
:20D4000000001F000000000000001F000000000000001F000000000000001F000000000090
:20D4200000001F000000000000001F000000000000001F000000000000001F000000000070
:20D4400000001F000000000000001F000000000000001F000000000000001F000000000050
:20D4600000001F000000000000001F000000000000001F000000000000001F000000000030
:20D4800000001F000000000000001F000000000000001F000000000000001F000000000010
:20D4A00000001F000000000000001F000000000000001F000000000000001F0000000000F0
:20D4C00000001F000000000000001F000000000000001F000000000000001F0000000000D0
:20D4E00000001F000000000000001F000000000000001F000000000000001F0000000000B0
:20D500001F001F00000000001F001F00000000001F001F000000000000001F000000000032
:20D5200000001F00000000001F001F00000000001F001F00000000001F001F000000000012
:20D5400000001F000000000000001F000000000000001F000000000000001F00000000004F
:20D5600000001F000000000000001F000000000000001F000000000000001F00000000002F
:20D5800000001F000000000000001F000000000000001F000000000000001F00000000000F
:20D5A00000001F000000000000001F000000000000001F000000000000001F0000000000EF
:20D5C00000001F000000000000001F000000000000001F000000000000001F0000000000CF
:20D5E00000001F000000000000001F000000000000001F000000000000001F0000000000AF
:20D6000000001F000000000000001F000000000000001F000000000000001F00000000008E
:20D6200000001F000000000000001F000000000000001F000000000000001F00000000006E
:20D6400000001F000000000000001F000000000000001F000000000000001F00000000004E
:20D6600000001F000000000000001F000000000000001F000000000000001F00000000002E
:20D6800000001F000000000000001F000000000000001F000000000000001F00000000000E
:20D6A00000001F000000000000001F000000000000001F000000000000001F0000000000EE
:20D6C00000001F000000000000001F000000000000001F000000000000001F0000000000CE
:20D6E00000001F000000000000001F000000000000001F000000000000001F0000000000AE
:20D7000000001F000000000000001F000000000000001F000000000000001F00000000008D
:20D7200000001F000000000000001F000000000000001F000000000000001F00000000006D
:20D7400000001F000000000000001F000000000000001F000000000000001F00000000004D
:20D7600000001F000000000000001F000000000000001F000000000000001F00000000002D
:20D7800000001F000000000000001F000000000000001F000000000000001F00000000000D
:20D7A00000001F000000000000001F000000000000001F000000000000001F0000000000ED
:20D7C00000001F000000000000001F000000000000001F000000000000001F0000000000CD
:20D7E00000001F000000000000001F000000000000001F000000000000001F0000000000AD
:20D8000000001F000000000000001F000000000000001F000000000000001F00000000008C
:20D8200000001F000000000000001F000000000000001F000000000000001F00000000006C
:20D8400000001F000000000000001F000000000000001F000000000000001F00000000004C
:20D8600000001F000000000000001F000000000000001F000000000000001F00000000002C
:20D8800000001F000000000000001F000000000000001F000000000000001F00000000000C
:20D8A00000001F000000000000001F000000000000001F000000000000001F0000000000EC
:20D8C00000001F000000000000001F000000000000001F000000000000001F0000000000CC
:20D8E00000001F000000000000001F000000000000001F000000000000001F0000000000AC
:20D9000000001F000000000000001F000000000000001F000000000000001F00000000008B
:20D9200000001F000000000000001F000000000000001F000000000000001F00000000006B
:20D9400000001F000000000000001F000000000000001F000000000000001F00000000004B
:20D9600000001F000000000000001F000000000000001F000000000000001F00000000002B
:20D9800000001F000000000000001F000000000000001F000000000000001F00000000000B
:20D9A00000001F000000000000001F000000000000001F000000000000001F0000000000EB
:20D9C0002D4D00120040D0443846A047000000000000000000000000000000000000C7003B
:20D9E000BB00BF00A300BB00BA00C7000000FF00FF001900EA000A00EA000A000000FF00D0
:20DA0000FF007100AE00A000AF00B1000000F800FB00FB00F800FB00FB00F80000007F0095
:20DA2000BF00B1006E00AE00AE0071000000FF00FF00BB00BB00BB00BB00C3000000E100AD
:20DA4000EE00EE00E100EE00EE00E100FF00FF00FF00C700BA00BA00BA00C700FF00FD0097
:20DA6000FD001800ED00ED00ED001E00FF00FE00FE003E00FE00FE00BE007E00FF000F002D
:20DA8000FF00FB001A00F900FB000B00FF00FF00FF002C00EB00E700EF00EF00000000009A
:20DAA000FF00C600BA00BA00BA00C60000000000FF00CF00BF007F00FF00FF0000000000A3
:20DAC000FF00FF00FF00FF00FF00FF00000000000000FF000000000000000E00000000003F
:20DAE0000000FF000000000000000000FF0000000000FF000000000000000100FF00000029
:20DB00000000FF00000000000000E000FF0000000000FF000000000000000000FB00BB0072
:20DB2000C700FF000000000000000000FF00FF00FF00FF00000000000000800000000000A3
:20DB400000000000000000000000440000000000000000000000000000000100110010005F
:20DB60001700110011000E00000000000000390005003D0045003D00000000000000A300BE
:20DB8000540057005400530000000000010081004100C1000100810000000000100013000A
:20DBA000E40014001400E30000000000000091005100510051008F00010011000400040049
:20DBC00007000400040007000000000040004E009100510051008E000000000000003900A7
:20DBE0004400440044003800000000008000F0008000800090006000000000006C00540001
:20DC00004400440045004400000000000000E7001400F4001400F4000000000000008E006E
:20DC200041004F0051004F0000000000000038004500450045003C00040044000000E40045
:20DC40001500F6000400E400000000000100C1000100010001000100000000000000E30028
:20DC600010001300140013000000000000008F005000CE004100DE0000000000000000008E
:20DC80000E0011001F0010000E00000000000000450029001100290045000100000000003A
:20DCA000E300140017001400E30000000000000093005400D80010009000000040000000C0
:20DCC0004E0051005F0050004E0000000E000000780045004500450044000000000000000F
:20DCE000E300140007001400E3000000010001008F005100D10011008F00000000000000DC
:20DD00000300000003000400030000000000000081004100C1004100C10001000000000070
:20DD2000E400150016001400E400000000000000CE001100110011000E000000410041004B
:20DD400079004500450045007900000038000000390045007D004100390000000000000055
:20DD6000A0005000500050005400000000000E00110010000E00010011000E000000200042
:20DD800020007C002000200025001800000002000200E7001200F2001200F1000000000078
:20DDA0000000D1001100110051008F000000000000003C00400039000400790000000E0050
:20DDC00011000013001500190011000E0000000000000044002900110029004400000300E4
:20DDE0000400E400150006001400E30000008E005100D3005500590051008E0000003800B2
:20DE000045004D0055006500450038000000E30014003400550096001400E30000003000FC
:20DE2000200070002000200020002000000000001F0004000400040004000400000000009F
:20DE400000000000790044004400440000000000C0008000CE0091009100910000000000BC
:20DE600000030004000400074004000400000000800040005E00D1005100510000000000B7
:20DE8000000000000300040007000400000000000000000093005400D800100000000000A1
:20DEA000000000004C005100610041000000000000000000E4001500160014000000000000
:20DEC00000000000C0000100010001000000000000000000E3001400140014000000000060
:20DEE000000000008E005100100051000000000000000000450045004500450000000000CE
:20DF00000000000034004500860004000000000000000000CE0011001F00100000000000F0
:20DF2000040004003C004400440044001F0000000000000000000000000000008E00000024
:20DF400000000000000000000000000040040000020002000700020002000200510000001B
:20DF600000000000D3001400180050000300000000000000390005003D00450090000000FF
:20DF800000000000E300140013001000400000000C000800DC00090089004900E400000078
:20DFA00000000000E4001500F60004000000000000000000D300140018001000E30000007C
:20DFC000400000005E005100510051008E0000000000000038004400440044003D000000E1
:20DFE000000000000E0011001F001000040000000000000044002900110029000E0000001A
:20E0000000000000E3001400F40004003C0000000000000091005100110051000000000091
:20E02000210020007D002100210025000000000000000000390045004500450000000000B3
:20E0400000000000E000100010001000900000000000000000000000000000003D000000E3
:20E06000000000000000000000000000170000000000000000000000000000008800000001
:20E08000000000000000000000000000E4000000000000000000000000000000100000008C
:20E0A000000000000000000000000000510000000000000000000000000000003C000400CF
:20E0C0004400380000000000000000000E000000000000000000000000000000E3000000D3
:20E0E0000000000000000000000000008F0000000000000000000000000000001900000078
:20E100000000000000000000000000003900000000000000000000000000000014000000B2
:20E1200000000000000000000000000000000A000A000A00040004000400000000000000B5
:20E140006A00AA00AA00AA00CE000000000000000300040004000400070000000000000073
:20E1600066001500350055007500000000000100010003000100010001000000000000001D
:20E180001A00A20022002200210000000000000080008100800080008000800000008000DD
:20E1A0008C00D4009400940098000000000000000600080008000800080000000000000019
:20E1C0006600A800E80088006E000000000000006A00AA00AA00AA00C40000000000000027
:20E1E0006600A800E800880068000000000000000400050005000500020000000000120012
:20E2000042005700520052009200000000004000600050005000500050000000000012003D
:20E2200013003A001200120012000000000000001800A800B800A0009800000000000C009F
:20E2400011001000140015001D000000000000009A005500D5005500D50000000000000069
:20E26000300050007000400030000000000000000C000A000E000A000A000E0000000000F8
:20E2800000006A00AA00AA00AA00C60000000000070005000600050005000500000000002F
:20E2A00000003300540074004400370000000000000035005500550055006200030000004F
:20E2C00000003300540074004400340000000000000050005000500050003000000000005B
:20E2E0003800110012001200120013000000000002009A00AA00AA00AA00310000000000C1
:20E3000000003000400070001000640000000000050009000900080008000800000000007A
:20E3200040004D0055009500950099000000000000004000400040004000C0000000000078
:20E340000200D000AA00AA00AA00AA000000000008006C00AA00AA00AA00EA0000000000E7
:20E3600040004000E0004000400040000000000000006300550057005400530000000000C7
:20E380000100330055007500450037000000000001000100030001000100010000000000FB
:20E3A00000001800A8002800280030000000000000000000060008000800080002000C00F1
:20E3C000000000006600A800EE00820000000000000040004C00E20046004A0000000000C1
:20E3E0000000040064008E008400840000000000000000000600050005000500000000000A
:20E4000000000000990045004D00550010006000000000009500540054005500000000007A
:20E420000000120092005200D2005200000000000000010050005000500050000000000081
:20E44000000000008000800080008000040000000000000000000000000000002000C000D8
:20E460000000000000000000000000006C0000000000000000000000000000004E000000E2
:20E480000000000000000000000000008400000000000000000000000000000005000000F3
:20E4A0000000000000000000000000005D000000000000000000000000000000C900000036
:20E4C000000000000000000000000000340011006000000000000000000000000000000097
:20E4E0000000000000000E0004000400000000000000000000002000400040000000000066
:20E500000000000000002400260075000000000000000000000000003000500000000000BC
:20E52000000000000000000039002A000000000000000000000002009B002A0000000000B1
:20E5400000000000000020002300A500000000000000000000000000680054000000000017
:20E560000000000000000000060008000000000000000000000000006C00AA000000000077
:20E5800000000000000048004300EA000000000000000000000000002900AA000000000033
:20E5A00000000000000000009800A00000000000000000000000200026007100000000006C
:20E5C0000000000000000200320047000000000000000000000000000200020000000000BC
:20E5E00000000000000000009A00AA00040004000E0000000000000000000C00E000400095
:20E60000400000000000000020006D0025002500250000000000000020000C0070004000E2
:20E620003000000000000000810019002A002A00320020002000000000001B002A002A00DB
:20E64000330000000000000010001100A700A4009300000000000000000098005400540048
:20E66000540000000000000000000C00080008000E000000000000000000C000AA00AA0008
:20E68000CA000000000000000000D3004A004A004A0000000000000000003200AB00AA0078
:20E6A000B90000000000000008009300B8000800B200020000000000010019000400040070
:20E6C00007000000000000000000290055005500650000000000000000009900230025001A
:20E6E000270000000000000000008000420042007200000000000000000000000200020079
:20E70000010000000300000000000000AA00AA00B30080000000000000000000A000A0002E
:20E72000A00000000000000000000000020006000A000E00000000000000FF00AA00AA00C6
:20E74000AA00EA00000000000000FF00AA00AA00AA00AA00000000000000FF00A300B90023
:20E760008900B100000000000000FF00A000210022002300000000000000FF00BA0092000F
:20E7800092009300000000000000FF00A000A000A0002000000000000000FF00150015002C
:20E7A00015001900000000000000FF000000000000000000000000000000FF00A800A900DC
:20E7C000AA00AB00000000000000FF00AA00AA00AA00AB00000000000000FF009000B900F4
:20E7E00092009300000000000000FF00A300A100A100B900000000000000FF00AA002A0084
:20E800002A003A00000000000000FF002A003A0022001A00000000000000FF0000000000F6
:20E8200000002000000000000000FF00FC00FB00FB00F800FB00FB00FB00FF006E00A600CB
:20E84000AA002A00AC00AC00AE00FF00BB00BB00D700EF00EF00EF00EF00FF008600BA0097
:20E86000BA008600BA00BA008700FF00E800EE00EE00EE00EE00EE001E00FF002000FB0098
:20E88000FB00FB00FB00FB00FB00FF00C600BA00BA00BA00BA00BA00C600FF00EF006F0007
:20E8A000A800AF00C800CF00EF00FF00C700BB00BF00BE00BE00BA00C700FF00FF00FF0041
:20E8C0001800EB00EB00EB001B00FF00F700F7006000B700B700B600B900FF00BF00FF005D
:20E8E000A100AE00AE00AE00AE00FF00FF00FF00BB00BA00BA00BA00C300FF000000000017
:20E900001F00EF000F00FF001F00FF000000000102030405060708090A0B0C0D0E0F000045
:20E920001011111213141312151617000000001800000000191A1B1C1D1E1F20212223247F
:20E9400025262728292A00002B2C2D2E2F30313233343536373839000000000000180000C4
:20E9600000000000001800000000000000000000003A3B3C3D3E3F40414243444245000043
:20E9800000000000000000000000000000000000000000000000000000464748494A4B4C78
:20E9A0004D4E4F5051525354550000000056175758595A5B5C5D5E5F6061626364656667C2
:20E9C000000000001868696A6B6C6D6E6F70177172737475767778797A7B7C7D7E7F808133
:20E9E00082838485868788898A8B8C8D8E8F909192939495969798999A9B9C9D9E9FA0A1E7
:20EA0000A2A3A4A5A6A7A8000000A900000000006DAAABACADAEAEAFB018000000000000DC
:20EA200000000000B1B2B3B4B5B6B7B8B9BABBBCBDA9BABEBFC0C1BDC2C3C4C5C6C7C8C941
:20EA4000CACBCCCDCECFD0D1D2D3D4D5D6D7D8D9DADBDCDDDEDFE0E1E2E3E4E5DEDEDEDEAC
:20EA6000E6E7E8E9EAEBECEDEEEFF0F1F2F30F000000000000000001010202020303040482
:20EA80000405050606060707000000010102222203030404040505060606070700000001C3
:20EAA0000102020203030404040505060606070700000001010202020303040404050506E9
:20EAC000060607070040000101020202034304040405050606060707000000010102020250
:20EAE000030304040405050606060707000000010102020203030404040505060606070796
:20EB000000000001010202020303040404050506060607070000400101020202030304045B
:20EB20000405050606060707000000014102020203030404040545060606070700000001E2
:20EB4000010202020303040404050506060607070000000101020202030304040405050648
:20EB600006060707000000010102020203030404040505060606070720000001010202020F
:20EB8000036304040405050606060707000000010102020203030404046525060606070715
:20EBA0000000000101020202030304040405050606060707000000010102020203030404FB
:20EBC00004050506060607070000000101020202030304040405050606060707B556B556AD
:20EBE000FF7F0000B556B556FF7F0000B556B556FF7F0000B556B556FF7F00001400B556BC
:20EC0000FF7F00001400B556FF7F0000B556B556FF7F0000B556B556FF7F0000B556B5569B
:20EC2000FF7F00001400B556FF7F00001400B556FF7F00001400B556FF7F00001400B55660
:20EC4000FF7F00001400B556FF7F00001400B556FF7F0000B556B556FF7F0000B556B55652
:20EC6000FF7F00001400B556FF7F00001400B556FF7F00001400B556FF7F00001400B55620
:20EC8000FF7F00001400B556FF7F00001400B556FF7F0000B556B556FF7F0000B556B55612
:20ECA000FF7F00001400B556FF7F00001400B556FF7F00001400B556FF7F00001400B556E0
:20ECC000FF7F00001400B556FF7F00001400B556FF7F0000B556B556FF7F0000B556B556D2
:20ECE000FF7F00001400B556FF7F00001400B556FF7F00001400B556FF7F0000B556B556A9
:20ED0000FF7F0000B556B556FF7F0000B556B556FF7F0000B556B556FF7F0000B556B556A3
:20ED2000FF7F0000B556B556FF7F0000B556B556FF7F00001400B556FF7F0000B556B5567A
:20ED4000FF7F0000B556B556FF7F0000B556B556FF7F0000B556B556FF7F00001400B5565A
:20ED6000FF7F00001400B556FF7F00001400B556FF7F00001400B556FF7F00001400B5561F
:20ED8000FF7F00001400B556FF7F00001400B556FF7F00001400B556FF7F00001400B556FF
:20EDA000FF7F00001400B556FF7F00001400B556FF7F00001400B556FF7F00001400B556DF
:20EDC000FF7F00001400B556FF7F00001400B556FF7F00001400B556FF7F00001400B556BF
:20EDE000FF7F00001400B556FF7F00001400B556FF7F00001400B556FF7F00001400B5569F
:20EE0000FF7F00001400B556FF7F00001400B556FF7F00001400B556FF7F00001400B5567E
:20EE2000FF7F00001400B556FF7F00001400B556FF7F00001400B556FF7F00001400B5565E
:20EE4000FF7F00001400B556FF7F00001400B556FF7F00001400B556FF7F00001400B5563E
:20EE6000FF7F00001400B556FF7F00001400B556FF7F00001400B556FF7F00001400B5561E
:20EE8000FF7F00001400B556FF7F00001400B556FF7F00001400B556FF7F00001400B556FE
:20EEA000FF7F00001400B556FF7F00001400B556FF7F00001400B556FF7F00001400B556DE
:20EEC000FF7F00001400B556FF7F00001400B556FF7F00001400B556FF7F00001400B556BE
:20EEE000FF7F00001400B556FF7F00001400B556FF7F00001400B556FF7F00001400B5569E
:20EF0000FF7F00001400B556FF7F00001400B556FF7F00001400B556FF7F00001400B5567D
:20EF2000FF7F00001400B556FF7F00001400B556FF7F00001400B556FF7F00001400B5565D
:20EF4000FF7F00001400B556FF7F00001400B556FF7F00001400B556FF7F00001400B5563D
:20EF6000FF7F00001400B556FF7F00001400B556FF7F00001400B556FF7F00001400B5561D
:20EF8000FF7F00001400B556FF7F00001400B556FF7F00001400B556FF7F00001400B556FD
:20EFA000FF7F00001400B556FF7F00001400B556FF7F00001400B556FF7F00001400B556DD
:20EFC000FF7F00001400B556FF7F00001400B556FF7F00001400B556FF7F00001400B556BD
:20EFE000FF7F00001400B556FF7F00001400B556FF7F00001400B556FF7F00001400B5569D
:20F00000FF7F00001400B556FF7F00001400B556FF7F00001400B556FF7F00001400B5567C
:20F02000FF7F00001400B556FF7F00001400B556FF7F00001400B556FF7F00001400B5565C
:20F04000FF7F00001400B556FF7F00001400B556FF7F00001400B556FF7F00001400B5563C
:20F06000FF7F00001400B556FF7F00001400B556FF7F00001400B556FF7F00001400B5561C
:20F08000FF7F00001400B556FF7F00001400B556FF7F00001400B556FF7F00001400B556FC
:20F0A000FF7F00001400B556FF7F00001400B556FF7F00001400B556FF7F00001400B556DC
:20F0C000FF7F00001400B556FF7F00001400B556FF7F00001400B556FF7F00001400B556BC
:20F0E000FF7F00001400B556FF7F00001400B556FF7F00001400B556FF7F00001400FF7F29
:20F10000FF7F00001400FF7FFF7F00001400FF7FFF7F00001400FF7FFF7F00001400B55622
:20F12000FF7F00001400B556FF7F00001400FF7FFF7F00001400FF7FFF7F00001400FF7F02
:20F14000FF7F00001400FF7FFF7F00001400FF7FFF7F00001400FF7FFF7F00001400B556E2
:20F16000FF7F00001400B556FF7F00001400B556FF7F00001400FF7FFF7F00001400FF7F35
:20F18000FF7F00001400FF7FFF7F00001400FF7FFF7F00001400FF7FFF7F00001400B556A2
:20F1A000FF7F00001400B556FF7F00001400B556FF7F00001400FF7FFF7F00001400FF7FF5
:20F1C000FF7F00001400FF7FFF7F00001400FF7FFF7F00001400FF7FFF7F00001400B55662
:20F1E000FF7F00001400B556FF7F00001400B556FF7F00001400FF7FFF7F00001400FF7FB5
:20F20000FF7F00001400FF7FFF7F00001400FF7FFF7F00001400FF7FFF7F00001400FF7FAE
:20F22000FF7F00001400FF7FFF7F00001400FF7FFF7F00001400FF7FFF7F00001400FF7F8E
:20F24000FF7F00001400FF7FFF7F00001400FF7FFF7F00001400FF7FFF7F00001400FF7F6E
:20F26000FF7F00001400FF7FFF7F00001400FF7FFF7F00001400FF7FFF7F00001400FF7F4E
:20F28000FF7F00001400FF7FFF7F00001400FF7FFF7F00001400FF7FFF7F00001400FF7F2E
:20F2A000FF7F00001400FF7FFF7F00001400FF7FFF7F00001400FF7FFF7F00001400FF7F0E
:20F2C000FF7F00001400FF7FFF7F00001400FF7FFF7F00001400FF7FFF7F00001400FF7FEE
:20F2E000FF7F00001400FF7FFF7F00001400FF7FFF7F00001400FF7FFF7F00001400FF7FCE
:20F30000FF7F00001400FF7FFF7F00001400FF7FFF7F00001400FF7FFF7F00001400B55620
:20F32000FF7F00001400B556FF7F00001400FF7FFF7F00001400FF7FFF7F00001400FF7F00
:20F34000FF7F00001400FF7FFF7F00001400FF7FFF7F00001400FF7FFF7F00001400B556E0
:20F36000FF7F00001400B556FF7F00001400FF7FFF7F00001400FF7FFF7F00001400FF7FC0
:20F38000FF7F00001400FF7FFF7F00001400FF7FFF7F00001400FF7FFF7F00001400B556A0
:20F3A000FF7F00001400B556FF7F00001400FF7FFF7F00001400FF7FFF7F00001400FF7F80
:20F3C000FF7F00001400FF7FFF7F00001400FF7FFF7F00001400FF7FFF7F00001400B55660
:20F3E000FF7F00001400B556FF7F00001400FF7FFF7F00001400FF7FFF7F00001400FF7F40
:20F40000FF7F00001400FF7FFF7F00001400FF7FFF7F00001400FF7FFF7F00001400FF7FAC
:20F42000FF7F00001400FF7FFF7F00001400FF7FFF7F00001400FF7FFF7F00001400FF7F8C
:20F44000FF7F00001400FF7FFF7F00001400FF7FFF7F00001400FF7FFF7F00001400FF7F6C
:20F46000FF7F00001400FF7FFF7F00001400FF7FFF7F00001400FF7FFF7F00001400FF7F4C
:20F48000FF7F00001400FF7FFF7F00001400FF7FFF7F00001400FF7FFF7F00001400FF7F2C
:20F4A000FF7F00001400FF7FFF7F00001400FF7FFF7F00001400FF7FFF7F00001400FF7F0C
:20F4C000FF7F00001400FF7FFF7F00001400FF7FFF7F00001400FF7FFF7F00001400FF7FEC
:20F4E000FF7F00001400FF7FFF7F00001400FF7FFF7F00001400FF7FFF7F00001400FF7FCC
:20F50000FF7F00001400FF7FFF7F00001400FF7FFF7F00001400FF7FFF7F00001400FF7FAB
:20F52000FF7F00001400FF7FFF7F00001400FF7FFF7F00001400FF7FFF7F00001400FF7F8B
:20F54000FF7F00001400FF7FFF7F00001400FF7FFF7F00001400FF7FFF7F00001400FF7F6B
:20F56000FF7F00001400FF7FFF7F00001400FF7FFF7F00001400FF7FFF7F00001400FF7F4B
:20F58000FF7F00001400FF7FFF7F00001400FF7FFF7F00001400FF7FFF7F00001400FF7F2B
:20F5A000FF7F00001400FF7FFF7F00001400FF7FFF7F00001400FF7FFF7F00001400FF7F0B
:20F5C000FF7F00001400FF7FFF7F00001400FF7FFF7F00001400FF7FFF7F00001400FF7FEB
:20F5E000FF7F00001400FF7FFF7F00001400FF7FFF7F00001400FF7FFF7F00001400B5563E
:20F60000FF7F00001400B556FF7F00001400B556FF7F00001400B556FF7F00001400B55676
:20F62000FF7F00001400B556FF7F00001400B556FF7F00001400B556FF7F00001400B55656
:20F64000FF7F00001400B556FF7F00001400B556FF7F00001400B556FF7F00001400B55636
:20F66000FF7F00001400B556FF7F00001400B556FF7F00001400B556FF7F00001400B55616
:20F68000FF7F00001400B556FF7F00001400B556FF7F00001400B556FF7F00001400B556F6
:20F6A000FF7F00001400B556FF7F00001400B556FF7F00001400B556FF7F00001400B556D6
:20F6C000FF7F00001400B556FF7F00001400B556FF7F00001400B556FF7F00001400B556B6
:20F6E000FF7F00001400B556FF7F00001400B556FF7F00001400B556FF7F00001400B55696
:20F70000FF7F00001400B556FF7F00001400B556FF7F00001400B556FF7F00001400B55675
:20F72000FF7F00001400B556FF7F00001400B556FF7F00001400B556FF7F00001400B55655
:20F74000FF7F00001400B556FF7F00001400B556FF7F00001400B556FF7F00001400B55635
:20F76000FF7F00001400B556FF7F00001400B556FF7F00001400B556FF7F00001400B55615
:20F78000FF7F00001400B556FF7F00001400B556FF7F00001400B556FF7F00001400B556F5
:20F7A000FF7F00001400B556FF7F00001400B556FF7F00001400B556FF7F00001400B556D5
:20F7C000FF7F00001400B556FF7F00001400B556FF7F00001400B556FF7F00001400B556B5
:20F7E000FF7F00001400B556FF7F00001400B556FF7F00001400B556FF7F00001400B55695
:20F80000FF7F00001400B556FF7F00001400B556FF7F00001400B556FF7F00001400B55674
:20F82000FF7F00001400B556FF7F00001400B556FF7F00001400B556FF7F00001400B55654
:20F84000FF7F00001400B556FF7F00001400B556FF7F00001400B556FF7F00001400B55634
:20F86000FF7F00001400B556FF7F00001400B556FF7F00001400B556FF7F00001400B55614
:20F88000FF7F00001400B556FF7F00001400B556FF7F00001400B556FF7F00001400B556F4
:20F8A000FF7F00001400B556FF7F00001400B556FF7F00001400B556FF7F00001400B556D4
:20F8C000FF7F00001400B556FF7F00001400B556FF7F00001400B556FF7F00001400B556B4
:20F8E000FF7F00001400B556FF7F00001400B556FF7F00001400B556FF7F00001400B55694
:20F90000FF7F00001400B556FF7F00001400B556FF7F00001400B556FF7F00001400B55673
:20F92000FF7F00001400B556FF7F00001400B556FF7F00001400B556FF7F00001400B55653
:20F94000FF7F00001400B556FF7F00001400B556FF7F00001400B556FF7F00001400B55633
:20F96000FF7F00001400B556FF7F00001400B556FF7F00001400B556FF7F00001400B55613
:20F98000FF7F00001400B556FF7F00001400B556FF7F00001400B556FF7F00001400B556F3
:20F9A000FF7F00001400B556FF7F00001400B556FF7F00001400B556FF7F00001400B556D3
:20F9C000FF7F00001400B556FF7F00001400B556FF7F00001400B556FF7F00001400B556B3
:20F9E000FF7F00001400B556FF7F00001400B556FF7F00001400B556FF7F00001400B55693
:20FA0000FF7F00001400B556FF7F00001400B556FF7F00001400B556FF7F00001400B55672
:20FA2000FF7F00001400B556FF7F00001400B556FF7F00001400B556FF7F00001400B55652
:20FA4000FF7F00001400B556FF7F00001400B556FF7F00001400B556FF7F00001400B55632
:20FA6000FF7F00001400B556FF7F00001400B556FF7F00001400B556FF7F00001400B55612
:20FA8000FF7F00001400B556FF7F00001400B556FF7F00001400B556FF7F00001400B556F2
:20FAA000FF7F00001400B556FF7F00001400B556FF7F00001400B556FF7F00001400B556D2
:20FAC000FF7F00001400B556FF7F00001400B556FF7F00001400B556FF7F00001400B556B2
:20FAE000FF7F00001400B556FF7F00001400B556FF7F00001400B556FF7F00001400B55692
:20FB0000FF7F00001400B556FF7F00001400B556FF7F00001400B556FF7F00001400B55671
:20FB2000FF7F00001400B556FF7F00001400B556FF7F00001400B556FF7F00001400B55651
:20FB4000FF7F00001400B556FF7F00001400B556FF7F00001400B556FF7F00001400B55631
:20FB6000FF7F00001400B556FF7F00001400B556FF7F00001400B556FF7F00001400B55611
:20FB8000FF7F00001400B556FF7F00001400B556FF7F00001400B556FF7F00001400B556F1
:20FBA000FF7F00001400B556FF7F00001400B556FF7F00001400B556FF7F00001400B556D1
:20FBC000FF7F00001400B556FF7F00001400B556FF7F00001400B556FF7F00001400B556B1
:20FBE000FF7F00001400B556FF7F00001400B556FF7F00001400B556FF7F00001400B55691
:20FC0000FF7F00001400B556FF7F00001400B556FF7F00001400B556FF7F00001400B55670
:20FC2000FF7F00001400B556FF7F00001400B556FF7F00001400B556FF7F00001400B55650
:20FC4000FF7F00001400B556FF7F00001400B556FF7F00001400B556FF7F00001400B55630
:20FC6000FF7F00001400B556FF7F00001400B556FF7F00001400B556FF7F00001400B55610
:20FC8000FF7F00001400B556FF7F00001400B556FF7F00001400B556FF7F00001400B556F0
:20FCA000FF7F00001400B556FF7F00001400B556FF7F00001400B556FF7F00001400B556D0
:20FCC000FF7F00001400B556FF7F00001400B556FF7F00001400B556FF7F00001400B556B0
:20FCE000FF7F00001400B556FF7F00001400B556FF7F00001400B556FF7F00001400B55690
:20FD0000FF7F0000B556B556FF7F0000B556B556FF7F0000B556B556FF7F00001400B5568A
:20FD2000FF7F00001400B556FF7F00001400B556FF7F00001400B556FF7F00001400B5564F
:20FD4000FF7F00001400B556FF7F0000B556B556FF7F0000B556B556FF7F00001400B55641
:20FD6000FF7F00001400B556FF7F00001400B556FF7F00001400B556FF7F00001400B5560F
:20FD8000FF7F00001400B556FF7F0000B556B556FF7F0000B556B556FF7F00001400B55601
:20FDA000FF7F00001400B556FF7F00001400B556FF7F00001400B556FF7F00001400B556CF
:20FDC000FF7F00001400B556FF7F0000B556B556FF7F0000B556B556FF7F00001400B556C1
:20FDE000FF7F00001400B556FF7F00001400B556FF7F00001400B556FF7F00002DF400127B
:08FE0000CC590C69746ADC6B3B
:020000040001F9
:200000000000000000000000000000000000000000000000000000010100C101C1E3C301B4
:200020006030604000C080C0800080000080000000030103010203020102010201030203F2
:200040000201C103C1E0C041000000000000000000008000008040C04080A06000602010E7
:200060000100010000000000000000000000000010001000A30044004400440043000000AC
:200080000000000091005100510051008F000000000000004C0050006000400040000000D1
:2000A0003900450041005D004500450039000000E00010001100E10011001100E10000007C
:2000C00000000000330040008300040003000000000000009E005100D1005100D100000041
:2000E00010000000170014001400140014000000080008009F0048004800490046000000BB
:200100000000000038004400440044003800000000000000380004003C0044003C000000AB
:200120000000000079004500450045007900400000000000330044008400040003000000BC
:20014000100010009E005100510051009E000000400040004E0051005F0050004E00000034
:200160000000000068005400540054005400000000000000390005003D0045003D000000CA
:2001800000000000E3001400140014001300000040004000C000400040004000C00000006D
:2001A000000000000000000000000000E30014000000000000000000000000008E00510069
:2001C0000000000000000000040004003C004500000000000000000000000000F1000000A5
:2001E000000000000000000080008000F300840000000000000000000000000084004500BF
:20020000000000000000000000000000CE0011000000000000000000000000003D00400082
:20022000000000000000000080008000F30080000000000000000000000000009300540064
:200240000000000000000000200020007C0020004000000000000000110015001500150032
:20026000000000000000000001000100380044000000000000000000000000004C00510063
:20028000000000000000000000000000E00010000000000000000000100000001400140036
:2002A0000000000000000000000000004F005000010001000100000000000000000000009C
:2002C00017001400130000000000000000000000DF0010008E000000000000000000000063
:2002E000440044003D0000000000000000000000E0001000E0000000000000000000000069
:20030000840094006300000000000000000000004600440084000000000000000000000054
:200320001F0010000E000000000000000000000038000400780000000000000000000000CC
:2003400083009400630000000000000000000000D8005000D000000000000000000000002B
:2003600020002400190000000000000000000000150015000A0000000000000000000000EC
:200380007C0040003800000000000000000000006100410040000000000000000000000087
:2003A000F0000000E0000000010000000000000014001400130010001000E0000000000031
:2003C0004E004100DE00000000000000000000002000240018000000000000000000000054
:2003E0000000000000000100010001000000000000000000E300140004001400E300000008
:200400001400140094005500550055009400000000000000E3001400F4000400E3000000BB
:20042000080008009F0048000800490086000000400000005E00510051005100510000000C
:200440000000000038004400440044003C000400000000003C004100390005007800000025
:2004600000000000E600150015001500E5000000000000008E0051005F0050004E00000096
:20048000000000000E0011001F0010000E000000000000004D00510061004100410000007F
:2004A000000000009300540058005000900000000C0008009C00490049004900480000004A
:2004C00000000000E000100010001000E2000200000000001C0002001E0022001E000000AC
:2004E00000000000F1008A008A008A008900000020002000E000200020002000E000000084
:2005000000000000000000000000000001000000000000000000000084008400F700840057
:20052000000000000000000000000000780044000000000000000000000000005400550056
:20054000000000000000000005000500E1001100440038000000000040004000440045001A
:20056000000000000000000030002000730024000000000000000000000000001100110072
:200580000000000000000000000000003900450004000000000000000000000010001000B9
:2005A000840094006400000000000000000000005F0050004E0000000000000000000000C2
:2005C00044004400440000000000000000000000550055002800000000000000000000007D
:2005E000F1000100E10000000000000000000000460044004400000000000000000000005A
:20060000240024002300000000000000000000005800500090000000000000000000000037
:20062000110011000F00010011000E000000000045004500380000000000000000000000A7
:2006400010001000F400000000000000000000000000000000000000E60016003000510009
:20066000000000000000000040004000800001000000000000000000000000009A0055008A
:2006800000000000000000000100010079004500000000000000000000000000390044001D
:2006A0000000000000000000000000008000400092001400E40000000000000000000000F0
:2006C0000100C100C0000000000000000000000004001400E300000000000000000000009D
:2006E000550055009500000000000000000000004500450079004000400000000000000038
:2007000087009400630000000000000000000000C00000008000000000000000000000001B
:2007200000000000000000000000FF008000BE0000000000000000000000FF00D800B200F3
:2007400000000000000000000000FF0060006F0000000000000000000000E0002000A0002B
:20076000000000000000000000007100890083000000000000000000000000000000E70015
:2007800000000000000000000000000000003C0000000000000000000000000000001C0001
:2007A000000000000000000000000000000071000000000000000000000020002000E700A1
:2007C000000000000000000000000200030002000000000000000000000027006800A800DB
:2007E000000000000000000000002200B200AA000000000000000000000089008A008A00DE
:2008000000000000000000000000C800280028000000000000000000000020002000200060
:2008200000000000000000000000880088005000A200A200A200BE008000FF009600A100FE
:200840008200C700BE009700AA009A00680064006800E80028002F00A000BF00A2008F00B3
:20086000A000A000A000A0002000E0006000A0007100090089007000000000000000000085
:20088000080008002800C7000000000000000000A200A200A2003C002000200000000000F7
:2008A0002200200022001C0000000000000000008A008A008A0071000000000000000000A9
:2008C00028002F002800E70000000000000000008200A2000200220000000000000000006A
:2008E0002F002800280028000000000000000000AA00A600A600A2000000000000000000B9
:200900008B008A008A0072000000000000000000E800280028002F0000000000000000005F
:20092000200020002000BE0000000000000000002000200020002000000000000000000019
:200940009C00A500AE00F700A000C5009C00FF004E00F90039006A00E20071000B008200E7
:20096000DB00A7000D008400E200DD008000B8002000E0002000A000A0006000E000A0002D
:200980000000FA0023002200220022002200FA0000002F002200A200A200620062002F0030
:2009A0000000BE000800080008000800080088000000F90022002200230022002200FA002B
:2009C0000000CF0022002200E2002200220022000000BE00200020003C00200020003E0004
:2009E0000000F00088008800880088008800F000000073008A008200830082008A007200EF
:200A00000000C70028002800CF0088004800280000001C00A200A0009C008200A2009C003E
:200A20000000880088008800F8008800880088008000BE00A200A200A200BE008000FF002D
:200A40009D00CA00E800B800CC00A4009900FF002B00B8008300BA0078008D001700FF004C
:200A60002000A0006000E000A000E0002000E00000000000000000000000000000000000F6
:200A8000000000000001020000000000000000000000000000000000000300000000000050
:200AA00000000000000000000000000000040500000000000000000000000000000000002D
:200AC0000000000000000000000000000000000000000000060708090A0B0C0D0E0F10118C
:200AE0001213141516171819061A1B1C1D1E1F202122232425262728292A24002B2C2D2E2C
:200B00002F303132333435363738393A3B3C3D003E3F40414243444546474849134A0E4BCB
:200B20004C4D4E4F50511B5253545520212223245623575859000000005A5B5C5D5E5F32ED
:200B40003334353D60616263640000002B65661A6768691E6A000000000000000000000002
:200B6000066B6C6D6E6F3870710000000000000000000000007273747500767778797A7B94
:200B80007C7D7E7F808182000083848586008788898A8B8C8D8E8F909192930000949596E2
:200BA000970098999A9B9C9D9E9FA0A1A200000000A3A4A5A600000000000000000000004D
:200BC00000000000000000000000000000000000000000000000000000000101010202030B
:200BE000030304040405050606060707000001010102020303030404040505060606070773
:200C0000000001010102020303030404040505060606070700000101010202030303040476
:200C200004050506060607070000010101020203030304040405050606060707000001013E
:200C40000102020303030404040505060606070740000101010202030303040404050506E4
:200C600006060707000001010102020303030404040505060606070700000101010202030A
:200C80000303040404050506060607070000010101020203030304040405050606060707D2
:200CA000000001010102020303030404040505060606070740000101010202030303040496
:200CC00004050506060607070000010101020203030304040405050606060707000001019E
:200CE000010202030303040404050506060607070000010101020203030304040405050684
:200D0000060607070000010101020203030304040405050606060707000001010102020369
:200D2000030304040405050606060707000001010102020303030404040505060606070731
:200D4000A465FE7F6C660962A465FE7F6C660962A465FE7F6C660962A465FE7F6C66096287
:200D6000A465FE7F6C660962A465FE7F6C660962A465FE7F6C660962A465FE7F6C66096267
:200D8000A465FE7F6C660962A465FE7F6C660962A465FE7F6C660962A465FE7F6C66096247
:200DA000A465FE7F6C660962A465FE7F6C660962A465FE7F6C660962A465FE7F6C66096227
:200DC000A465FE7F6C660962A465FE7F6C660962A465FE7F6C660962A465FE7F6C66096207
:200DE000A465FE7F6C660962A465FE7F6C660962A465FE7F6C660962A465FE7F6C660962E7
:200E0000A465FE7F6C660962A465FE7F6C660962A465FE7F6C660962A465FE7F6C660962C6
:200E2000A465FE7F6C660962A465FE7F6C660962A465FE7F6C660962A465FE7F6C660962A6
:200E4000A465FE7F6C660962A465F3660962DC7FA465F3660962DC7FA465F3660962DC7F57
:200E6000A465FE7F6C660962A465FE7F6C660962A465FE7F6C660962A465FE7F6C66096266
:200E8000A465F3660962DC7FA465146BBA7BFD7FA465146BBA7BFD7FA465146BBA7BFD7F7F
:200EA000A465FE7F6C660962A465FE7F6C660962A465FE7F6C660962A465FE7F6C66096226
:200EC000A46579736E62FD7FA465BB7BB162FD7FA465BB7BB162FD7FA465BB7BB162FD7F67
:200EE000A465FE7F6C660962A465FE7F6C660962A465FE7F6C660962A465FE7F6C660962E6
:200F0000A46599778F62FE7FA465356B2A62FE7FA465356B2A62FE7FA465356B2A62FE7F34
:200F2000A465FE7F6C660962A465FE7F6C660962A465FE7F6C660962A465FE7F6C660962A5
:200F4000A465146B9A77DC7FA465146B9A77DC7FA465146B9A77DC7FA465146B9A77DC7FC1
:200F6000A465FE7F6C660962A465FE7F6C660962A465FE7F6C660962A465FE7F6C66096265
:200F8000A465366FDC7F7773A465366FDC7F7773A465366FDC7F7773A465366FDC7F777385
:200FA000A465FE7F6C660962A465FE7F6C660962A465FE7F6C660962A465FE7F6C66096225
:200FC000A465366FDC7FFD7FA465366FDC7FFD7FA465366FDC7FFD7FA465366FDC7FFD7FFD
:200FE000A465FE7F6C660962A465FE7F6C660962A465FE7F6C660962A465FE7F6C660962E5
:20100000A465366FDC7B7873A465366FDC7B7873A465366FDC7B7873A465366FDC7B787310
:20102000A465FE7F6C660962A465FE7F6C660962A465FE7F6C660962A465FE7F6C660962A4
:20104000A465146BDC7F7877A465146BDC7F7877A465146BDC7F7877A465146BDC7F787748
:20106000A465FE7F6C660962A465FE7F6C660962A465FE7F6C660962A465FE7F6C66096264
:20108000A465DB7B2962FE7FA465D1627873FE7FA465D1627873FE7FA465D1627873FE7FFD
:2010A000A465FE7F6C660962A465FE7F6C660962A465FE7F6C660962A465FE7F6C66096224
:2010C000A465B166146BD166A4655673FD7FC565A4655673FD7FC565A4655673FD7FC565D2
:2010E000A465FE7F6C660962A465FE7F6C660962A465FE7F6C660962A465FE7F6C660962E4
:20110000A4655673FD7FC565A465F366BB7B0962A465F366BB7B0962A465F366BB7B09624E
:20112000A465FE7F6C660962A465FE7F6C660962A465FE7F6C660962A465FE7F6C660962A3
:20114000A465F366BB7B0962A46557736C660962A46557736C660962A46557736C6609625C
:20116000A465FE7F6C660962A465FE7F6C660962A465FE7F6C660962A465FE7F6C66096263
:20118000A46557736C660962A46557736C660962A46557736C660962A46557736C6609620F
:2011A000A465FE7F6C660962A465FE7F6C660962A465FE7F6C660962A465FE7F6C66096223
:2011C000A46557736C660962A46557736C660962A46557736C660962A46557736C660962CF
:2011E000A465FE7F6C660962A465FE7F6C660962A465FE7F6C660962A465FE7F6C660962E3
:20120000A46557736C660962A46557736C660962A46557736C660962A46557736C6609628E
:20122000A465FE7F6C660962A465FE7F6C660962A465FE7F6C660962A465FE7F6C660962A2
:20124000A465FF7F6C660962A465FF7F6C660962A465FF7F6C660962A465FF7F6C6609627E
:20126000A465FF7F6C660962A465FF7F6C660962A465FF7F6C660962A465FF7F6C6609625E
:20128000A465FF7F6C660962A465FF7F6C660962A465FF7F6C660962A465FF7F6C6609623E
:2012A000A465FF7F6C660962A465FF7F6C660962A465FF7F6C660962A465FF7F6C6609621E
:2012C000A465FF7F6C660962A465FF7F6C660962A465FF7F6C660962A465FF7F6C660962FE
:2012E000A465FF7F6C660962A465FF7F6C660962A465FF7F6C660962A465FF7F6C660962DE
:20130000A465FF7F6C660962A465FF7F6C660962A465FF7F6C660962A465FF7F6C660962BD
:20132000A465FF7F6C660962A465FF7F6C660962A465FF7F6C660962A465FF7F6C6609629D
:20134000A465FF7F6C660962A465FF7F6C660962A465FF7F6C660962A465FF7F6C6609627D
:20136000A465FF7F6C660962A465FF7F6C660962A465FF7F6C660962A465FF7F6C6609625D
:20138000A465FF7F6C660962A465FF7F6C660962A465FF7F6C660962A465FF7F6C6609623D
:2013A000A465FF7F6C660962A465FF7F6C660962A465FF7F6C660962A465FF7F6C6609621D
:2013C000A465FF7F6C660962A465FF7F6C660962A465FF7F6C660962A465FF7F6C660962FD
:2013E000A465FF7F6C660962A465FF7F6C660962A465FF7F6C660962A465FF7F6C660962DD
:20140000A465FF7F6C660962A465FF7F6C660962A465FF7F6C660962A465FF7F6C660962BC
:20142000A465FF7F6C660962A465FF7F6C660962A465FF7F6C660962A465FF7F6C6609629C
:20144000A465FF7F6C660962A465FF7F6C660962A465FF7F6C660962A465FF7F6C6609627C
:20146000A465FF7F6C660962A465FF7F6C660962A465FF7F6C660962A465FF7F6C6609625C
:20148000A465FF7F6C660962A465FF7F6C660962A465FF7F6C660962A465FF7F6C6609623C
:2014A000A465FF7F6C660962A465FF7F6C660962A465FF7F6C660962A465FF7F6C6609621C
:2014C000A465FF7F6C660962A465FF7F6C660962A465FF7F6C660962A465FF7F6C660962FC
:2014E000A465FF7F6C660962A465FF7F6C660962A465FF7F6C660962A465FF7F6C660962DC
:20150000A465FF7F6C660962A465FF7F6C660962A465FF7F6C660962A465FF7F6C660962BB
:20152000A465FF7F6C660962A465FF7F6C660962A465FF7F6C660962A465FF7F6C6609629B
:20154000A465FF7F6C660962A465FF7F6C660962A465FF7F6C660962A465FF7F6C6609627B
:20156000A465FF7F6C660962A465FF7F6C660962A465FF7F6C660962A465FF7F6C6609625B
:20158000A465FF7F6C660962A465FF7F6C660962A465FF7F6C660962A465FF7F6C6609623B
:2015A000A465FF7F6C660962A465FF7F6C660962A465FF7F6C660962A465FF7F6C6609621B
:2015C000A465FF7F6C660962A465FF7F6C660962A465FF7F6C660962A465FF7F6C660962FB
:2015E000A465FF7F6C660962A465FF7F6C660962A465FF7F6C660962A465FF7F6C660962DB
:20160000A465FF7F6C660962A465FF7F6C660962A465FF7F6C660962A465FF7F6C660962BA
:20162000A465FF7F6C660962A465FF7F6C660962A465FF7F6C660962A465FF7F6C6609629A
:20164000A465FF7F6C660962A465FF7F6C660962A465FF7F6C660962A465FF7F6C6609627A
:20166000A465FF7F6C660962A465FF7F6C660962A465FF7F6C660962A465FF7F6C6609625A
:20168000A465FF7F6C660962A465FF7F6C660962A465FF7F6C660962A465FF7F6C6609623A
:2016A000A465FF7F6C660962A465FF7F6C660962A465FF7F6C660962A465FF7F6C6609621A
:2016C000A465FF7F6C660962A465FF7F6C660962A465FF7F6C660962A465FF7F6C660962FA
:2016E000A465FF7F6C660962A465FF7F6C660962A465FF7F6C660962A465FF7F6C660962DA
:20170000A465FF7F6C660962A465FF7F6C660962A465FF7F6C660962A465FF7F6C660962B9
:20172000A465FF7F6C660962A465FF7F6C660962A465FF7F6C660962A465FF7F6C66096299
:20174000A465FF7F6C660962A465FF7F6C660962A465FF7F6C660962A465FF7F6C66096279
:20176000A465FF7F6C660962A465FF7F6C660962A465FF7F6C660962A465FF7F6C66096259
:20178000A465FF7F6C660962A465FF7F6C660962A465FF7F6C660962A465FF7F6C66096239
:2017A000A465FF7F6C660962A465FF7F6C660962A465FF7F6C660962A465FF7F6C66096219
:2017C000A465FF7F6C660962A465FF7F6C660962A465FF7F6C660962A465FF7F6C660962F9
:2017E000A465FF7F6C660962A465FF7F6C660962A465FF7F6C660962A465FF7F6C660962D9
:20180000A465FF7F6C660962A465FF7F6C660962A465FF7F6C660962A465FF7F6C660962B8
:20182000A465FF7F6C660962A465FF7F6C660962A465FF7F6C660962A465FF7F6C66096298
:20184000A465FF7F6C660962A465FF7F6C660962A465FF7F6C660962A465FF7F6C66096278
:20186000A465FF7F6C660962A465FF7F6C660962A465FF7F6C660962A465FF7F6C66096258
:20188000A465FF7F6C660962A465FF7F6C660962A465FF7F6C660962A465FF7F6C66096238
:2018A000A465FF7F6C660962A465FF7F6C660962A465FF7F6C660962A465FF7F6C66096218
:2018C000A465FF7F6C660962A465FF7F6C660962A465FF7F6C660962A465FF7F6C660962F8
:2018E000A465FF7F6C660962A465FF7F6C660962A465FF7F6C660962A465FF7F6C660962D8
:20190000A465FF7F6C660962A465FF7F6C660962A465FF7F6C660962A465FF7F6C660962B7
:20192000A465FF7F6C660962A465FF7F6C660962A465FF7F6C660962A465FF7F6C66096297
:20194000A465FF7F6C660962A465FF7F6C660962A465FF7F6C660962A465FF7F6C66096277
:20196000A465FF7F6C660962A465FF7F6C660962A465FF7F6C660962A465FF7F6C66096257
:20198000A465FF7F6C660962A465FF7F6C660962A465FF7F6C660962A465FF7F6C66096237
:2019A000A465FF7F6C660962A465FF7F6C660962A465FF7F6C660962A465FF7F6C66096217
:2019C000A465FF7F6C660962A465FF7F6C660962A465FF7F6C660962A465FF7F6C660962F7
:2019E000A465FF7F6C660962A465FF7F6C660962A465FF7F6C660962A465FF7F6C660962D7
:201A0000A465FF7F6C660962A465FF7F6C660962A465FF7F6C660962A465FF7F6C660962B6
:201A2000A465FF7F6C660962A465FF7F6C660962A465FF7F6C660962A465FF7F6C66096296
:201A4000A465FF7F6C660962A465FF7F6C660962A465FF7F6C660962A465FF7F6C66096276
:201A6000A465FF7F6C660962A465FF7F6C660962A465FF7F6C660962A465FF7F6C66096256
:201A8000A465FF7F6C660962A465FF7F6C660962A465FF7F6C660962A465FF7F6C66096236
:201AA000A465FF7F6C660962A465FF7F6C660962A465FF7F6C660962A465FF7F6C66096216
:201AC000A465FF7F6C660962A465FF7F6C660962A465FF7F6C660962A465FF7F6C660962F6
:201AE000A465FF7F6C660962A465FF7F6C660962A465FF7F6C660962A465FF7F6C660962D6
:201B0000A465FE7F6C660962A465FE7F6C660962A465FF7F6C660962A465FF7F6C660962B7
:201B2000A465FF7F6C660962A465FF7F6C660962A465FF7F6C660962A465FF7F6C66096295
:201B4000A465FE7F6C660962A465FE7F6C660962A465FF7F6C660962A465FF7F6C66096277
:201B6000A465FF7F6C660962A465FF7F6C660962A465FF7F6C660962A465FF7F6C66096255
:201B8000A465FE7F6C660962A465FE7F6C660962A465FF7F6C660962A465FF7F6C66096237
:201BA000A465FF7F6C660962A465FF7F6C660962A465FF7F6C660962A465FF7F6C66096215
:201BC000A465FE7F6C660962A465FE7F6C660962A465FF7F6C660962A465FF7F6C660962F7
:201BE000A465FF7F6C660962A465FF7F6C660962A465FF7F6C660962A465FF7F6C660962D5
:201C0000A465FE7F6C660962A465FE7F6C660962A465FE7F6C660962A465FF7F6C660962B7
:201C2000A465FF7F6C660962A465FF7F6C660962A465FF7F6C660962A465FF7F6C66096294
:201C4000A465FE7F6C660962A465FE7F6C660962A465FE7F6C660962A465FE7F6C66096278
:201C6000A465FF7F6C660962A465FF7F6C660962A465FF7F6C660962A465FF7F6C66096254
:201C8000A465FE7F6C660962A465FE7F6C660962A465FF7F6C660962A465FF7F6C66096236
:201CA000A465FF7F6C660962A465FF7F6C660962A465FF7F6C660962A465FF7F6C66096214
:201CC000A465FE7F6C660962A465FE7F6C660962A465FF7F6C660962A465FF7F6C660962F6
:201CE000A465FF7F6C660962A465FF7F6C660962A465FF7F6C660962A465FF7F6C660962D4
:201D0000A465FE7F6C660962A465FE7F6C660962A465FF7F6C660962A465FF7F6C660962B5
:201D2000A465FF7F6C660962A465FF7F6C660962A465FF7F6C660962A465FF7F6C66096293
:201D4000A465FE7F6C660962A465FE7F6C660962A465FF7F6C660962A465FF7F6C66096275
:201D6000A465FF7F6C660962A465FF7F6C660962A465FF7F6C660962A465FF7F6C66096253
:201D8000A465FE7F6C660962A465FE7F6C660962A465FE7F6C660962A465FE7F6C66096237
:201DA000A465FF7F6C660962A465FF7F6C660962A465FF7F6C660962A465FF7F6C66096213
:201DC000A465FE7F6C660962A465FE7F6C660962A465FE7F6C660962A465FE7F6C660962F7
:201DE000A465FF7F6C660962A465FF7F6C660962A465FF7F6C660962A465FF7F6C660962D3
:201E0000A465FE7F6C660962A465FE7F6C660962A465FE7F6C660962A465FE7F6C660962B6
:201E2000A465FF7F6C660962A465FF7F6C660962A465FF7F6C660962A465FF7F6C66096292
:201E4000A465FE7F6C660962A465FE7F6C660962A465FE7F6C660962A465FE7F6C66096276
:201E6000A465FF7F6C660962A465FF7F6C660962A465FF7F6C660962A465FF7F6C66096252
:201E8000A465FE7F6C660962A465FE7F6C660962A465FE7F6C660962A465FE7F6C66096236
:201EA000A465FF7F6C660962A465FF7F6C660962A465FF7F6C660962A465FF7F6C66096212
:201EC000A465FE7F6C660962A465FE7F6C660962A465FE7F6C660962A465FE7F6C660962F6
:201EE000A465FF7F6C660962A465FF7F6C660962A465FF7F6C660962A465FF7F6C660962D2
:201F0000A465FE7F6C660962A465FE7F6C660962A465FE7F6C660962A465FE7F6C660962B5
:201F2000A465FF7F6C660962A465FF7F6C660962A465FF7F6C660962A465FF7F6C66096291
:201F4000A465FE7F6C660962A465FE7F6C660962A465FE7F6C660962A465FE7F6C66096275
:0C1F60002DA700120040704AD84B404DE5
:20400000000000000000000000000000000000000000000000000000000000000000007828
:2040200000000100010301030703080F0807101FF87010E010F0C0E0C08080C080008000A0
:204040000000000004020E071F0F101F100F100F0000000000008080008080C080C080002A
:20406000110E1E0F1E3C221C407C3C787C38783C0907000000000000000000000000000074
:2040800078780878887888708878F078F078F078F078F078F078F078F07888F0887878F098
:2040A00000000000090E101F100F0F1F1F0F101F0000000000008000008080C08080800050
:2040C000787800784478443C003C3C3E3E1C203E0F090000000000000000000000000000B6
:2040E000110E101F0807080F040303010102010000000080800040C04080C0E0E0D010E03D
:20410000887848700000000000000000000000000000000000000000220022001400080087
:2041200000000000000000000000000072008A0000000000000000000000000029002A0030
:20414000000000000000000001000200820002000000000000000000CF0028000800EF00EA
:20416000000000000000000000008000820002000000000000000000000000006700800054
:204180000000000000000000000000003C00A2000000000000000000080000000B000A0024
:2041A000000000000000000004000400CF0024000000000000000000000000009C00220046
:2041C000000000000000000000000000070000000000000000000000000000000300820053
:2041E000000000000000000000000000C9002A00000000000000000082008200F2008A004C
:2042000000000000000000000000000073008A000000000000000000000000004000A000C1
:20422000080008000800000000000000100010008A008A00710000000000000080008000C1
:204240002C002800E800000000000000040004000200020001000000000000000200000013
:2042600028002800CF00000000000000400040008300820002000000000000000000000098
:2042800007000800070000000000000000000000A200A200A2000000000000000800080012
:2042A0000A000A000A000000000000002000200024002400230000000000000024002400ED
:2042C0002200A2001C0000000000000002000200820082008300020002000000000000006F
:2042E0002C002800C8000000000000000A000A00220022001C00000000000000000000002E
:204300008A008A00F20000000000000000000000FA008200720000000000000000000000A9
:20432000A000A000A000000000000000040004003E001000100012000C0000000000000019
:20434000F100880089008A008900000000000000CF002400E4002400E3000000000000006A
:2043600082000200020082000200000000000000F800400040004800300000000000000043
:204380001C002200200022001C0000000000000072008A008A008A00710000000000000000
:2043A00029002A002A002A00E900000000000000EF00280028002800E8000000000000001E
:2043C0000F00840084008400830000000000000083000200020082000200000000000000B4
:2043E000C70020002700280027000000000000003C00A200A200A200A2000000000000009C
:204400007A008A008A008A007A0000000000000070008800F8008000710001000200000026
:20442000030000000300040003000000000000009E005100D1005100D1000000000000008D
:204440003C004400440044003C00000000000000000000003C002200220022002200000054
:204460000000000072008A008A008A007100000000000000A000A000A000A00040000000FB
:2044800090001000BE009000900092008C000000000000000F000800080008000800000051
:2044A000000000001C00A200BE00A0009C0000000000000071008A00FA008200710000005C
:2044C00020002000E700280027002000EF000000010001008300010001008100000000004F
:2044E00000000000E700080008002800C7000000000000000200820083008200020000004B
:2045000000000000670088000F00080007000000000000001E00A0009C0002003C000000F6
:2045200040004000F900400041004A003100000000000000C9002A00EC002800E800000017
:2045400010001000BE001000100012000C00000000000000000000000000000080000000BF
:204560000000000000000000280029002A00120000000000000000000000A800A800A800B6
:20458000000000000000000000000D00100010000000000000000000000098005400D4002E
:2045A00000000000000000000000060008000E00000000000000000000006C00A200E600EB
:2045C0000000000000000000000066008800880000000000000000008000C000A000A000E5
:2045E0000000000000000000240026007500250000000000000000000000300050007000E7
:204600000000000000000000000019002A003A000000000000000000000099002200220040
:20462000000000000000000000009800A000A000000000000000000000000D00150015006B
:204640000000000000000000120090005200520000000000000000000000C600AA00AE00F6
:2046600012001300000000000000000000000000A800380000000000000000000000000035
:2046800011001D000000000000000000000000005400D400000000000000000000000000C4
:2046A00002000C000000000000000000000000008A006E00000000000000000000000000F4
:2046C00088008E00000000000000000000000000A000A00000000000000000000000000084
:2046E0002500250000000000000000000000000022001A0000000000000000000000000034
:2047000022002300000000000000000000000000A000200000000000000000000000000094
:204720001500190000000000000000000000000052004A00000000000000000000000000AF
:20474000A800A60000000000000000000000000029002A003B002A002A002A0000000000FF
:20476000A000A000A000A000A000BB00000000003B001200120012001200BA000000000021
:204780003B009100910091009100B90000000000B90012001300120012003A0000000000A5
:2047A000A300A100A100A100A100BB0000000000B9000A00130012002200BA000000000053
:2047C000BB0091009100910091009300000000009B002A002A002A002A00B2000000000052
:2047E00001008200830082008200BA00000000009B0029003900290029002B00000000007B
:20480000A3002200230022002200BB0000000000B0002800280028002800B00000000000B1
:20482000000000000000000000000000000000000000000000000000010000000000000077
:20484000000000000000000000000002030000000000000000000000000000000004050644
:20486000000000000000000000000000000000000007000800000000000000000000000029
:20488000000000000000000900000000000000000000000000000000000A0B0C00000000EE
:2048A000000000000000000000000000000D000E0F000000000000000000000000000000CE
:2048C0000000000010000000000000000000000000000000001112131415161718191A1BD6
:2048E0001C1D1E1B1F2021000022232425262728292A2B2C282D2E2F303132000033343558
:20490000363738393A3B3C3D3E3F4041424344000045464748494A4B4C4D4E4F5051525390
:2049200054550000000000000000000000000000000000000000000000565758595A5B5C5F
:204940005D5E5F60616263646555000000666768696A6B6C6D6E6A6F707172737455000077
:204960000075767778797A7B7C7D7E7F8081000000000000000000000000000000000000F8
:204980000000000000000000000001010202020203030404040505060606070700000101CF
:2049A000020202020303040404050506060607070000010102020202030304040405050687
:2049C00006060707000001010202020203030404040505060606070700000101020202026D
